{
  "contractName": "RekamMedis",
  "abi": [
    {
      "inputs": [],
      "stateMutability": "nonpayable",
      "type": "constructor"
    },
    {
      "anonymous": false,
      "inputs": [
        {
          "indexed": true,
          "internalType": "address",
          "name": "patient",
          "type": "address"
        },
        {
          "indexed": false,
          "internalType": "string",
          "name": "name",
          "type": "string"
        },
        {
          "indexed": false,
          "internalType": "uint256",
          "name": "dob",
          "type": "uint256"
        },
        {
          "indexed": false,
          "internalType": "string",
          "name": "diagnosis",
          "type": "string"
        },
        {
          "indexed": false,
          "internalType": "string",
          "name": "gender",
          "type": "string"
        }
      ],
      "name": "RecordCreated",
      "type": "event"
    },
    {
      "anonymous": false,
      "inputs": [
        {
          "indexed": true,
          "internalType": "address",
          "name": "patient",
          "type": "address"
        },
        {
          "indexed": false,
          "internalType": "string",
          "name": "name",
          "type": "string"
        },
        {
          "indexed": false,
          "internalType": "uint256",
          "name": "dob",
          "type": "uint256"
        },
        {
          "indexed": false,
          "internalType": "string",
          "name": "diagnosis",
          "type": "string"
        },
        {
          "indexed": false,
          "internalType": "string",
          "name": "gender",
          "type": "string"
        }
      ],
      "name": "RecordUpdated",
      "type": "event"
    },
    {
      "inputs": [],
      "name": "admin",
      "outputs": [
        {
          "internalType": "address",
          "name": "",
          "type": "address"
        }
      ],
      "stateMutability": "view",
      "type": "function",
      "constant": true
    },
    {
      "inputs": [
        {
          "internalType": "address",
          "name": "",
          "type": "address"
        }
      ],
      "name": "patientRecords",
      "outputs": [
        {
          "internalType": "string",
          "name": "name",
          "type": "string"
        },
        {
          "internalType": "uint256",
          "name": "dob",
          "type": "uint256"
        },
        {
          "internalType": "string",
          "name": "diagnosis",
          "type": "string"
        },
        {
          "internalType": "string",
          "name": "gender",
          "type": "string"
        }
      ],
      "stateMutability": "view",
      "type": "function",
      "constant": true
    },
    {
      "inputs": [
        {
          "internalType": "string",
          "name": "_name",
          "type": "string"
        },
        {
          "internalType": "uint256",
          "name": "_dob",
          "type": "uint256"
        },
        {
          "internalType": "string",
          "name": "_diagnosis",
          "type": "string"
        },
        {
          "internalType": "string",
          "name": "_gender",
          "type": "string"
        }
      ],
      "name": "createRecord",
      "outputs": [],
      "stateMutability": "nonpayable",
      "type": "function"
    },
    {
      "inputs": [
        {
          "internalType": "address",
          "name": "_patient",
          "type": "address"
        },
        {
          "internalType": "string",
          "name": "_name",
          "type": "string"
        },
        {
          "internalType": "uint256",
          "name": "_dob",
          "type": "uint256"
        },
        {
          "internalType": "string",
          "name": "_diagnosis",
          "type": "string"
        },
        {
          "internalType": "string",
          "name": "_gender",
          "type": "string"
        }
      ],
      "name": "updateRecord",
      "outputs": [],
      "stateMutability": "nonpayable",
      "type": "function"
    },
    {
      "inputs": [
        {
          "internalType": "address",
          "name": "_patient",
          "type": "address"
        }
      ],
      "name": "viewRecord",
      "outputs": [
        {
          "internalType": "string",
          "name": "",
          "type": "string"
        },
        {
          "internalType": "uint256",
          "name": "",
          "type": "uint256"
        },
        {
          "internalType": "string",
          "name": "",
          "type": "string"
        },
        {
          "internalType": "string",
          "name": "",
          "type": "string"
        }
      ],
      "stateMutability": "view",
      "type": "function",
      "constant": true
    }
  ],
  "bytecode": "0x608060405234801561001057600080fd5b50336000806101000a81548173ffffffffffffffffffffffffffffffffffffffff021916908373ffffffffffffffffffffffffffffffffffffffff160217905550611210806100606000396000f3fe608060405234801561001057600080fd5b50600436106100575760003560e01c8063200a1b911461005c5780632c580f3b1461008f5780633224673c146100ab578063b75bf865146100c7578063f851a440146100fa575b600080fd5b610076600480360381019061007191906108e1565b610118565b60405161008694939291906109b7565b60405180910390f35b6100a960048036038101906100a49190610b72565b6102e0565b005b6100c560048036038101906100c09190610c2d565b610442565b005b6100e160048036038101906100dc91906108e1565b6105f5565b6040516100f194939291906109b7565b60405180910390f35b61010261084b565b60405161010f9190610d0b565b60405180910390f35b600160205280600052604060002060009150905080600001805461013b90610d55565b80601f016020809104026020016040519081016040528092919081815260200182805461016790610d55565b80156101b45780601f10610189576101008083540402835291602001916101b4565b820191906000526020600020905b81548152906001019060200180831161019757829003601f168201915b5050505050908060010154908060020180546101cf90610d55565b80601f01602080910402602001604051908101604052809291908181526020018280546101fb90610d55565b80156102485780601f1061021d57610100808354040283529160200191610248565b820191906000526020600020905b81548152906001019060200180831161022b57829003601f168201915b50505050509080600301805461025d90610d55565b80601f016020809104026020016040519081016040528092919081815260200182805461028990610d55565b80156102d65780601f106102ab576101008083540402835291602001916102d6565b820191906000526020600020905b8154815290600101906020018083116102b957829003601f168201915b5050505050905084565b6000600160003373ffffffffffffffffffffffffffffffffffffffff1673ffffffffffffffffffffffffffffffffffffffff1681526020019081526020016000206001015414610365576040517f08c379a000000000000000000000000000000000000000000000000000000000815260040161035c90610dd2565b60405180910390fd5b6000600160003373ffffffffffffffffffffffffffffffffffffffff1673ffffffffffffffffffffffffffffffffffffffff1681526020019081526020016000209050848160000190816103b99190610f9e565b50838160010181905550828160020190816103d49190610f9e565b50818160030190816103e69190610f9e565b503373ffffffffffffffffffffffffffffffffffffffff167f8aa9a815085119edf5573675720ff48352bdbe54205ee254d8a0d9a4b50a0a2e8686868660405161043394939291906109b7565b60405180910390a25050505050565b60008054906101000a900473ffffffffffffffffffffffffffffffffffffffff1673ffffffffffffffffffffffffffffffffffffffff163373ffffffffffffffffffffffffffffffffffffffff16146104d0576040517f08c379a00000000000000000000000000000000000000000000000000000000081526004016104c7906110bc565b60405180910390fd5b6000600160008773ffffffffffffffffffffffffffffffffffffffff1673ffffffffffffffffffffffffffffffffffffffff1681526020019081526020016000209050600081600101540361055a576040517f08c379a00000000000000000000000000000000000000000000000000000000081526004016105519061114e565b60405180910390fd5b8481600001908161056b9190610f9e565b50838160010181905550828160020190816105869190610f9e565b50818160030190816105989190610f9e565b508573ffffffffffffffffffffffffffffffffffffffff167fbe1985e0d7287c84425c92d3b51dd4d68571a8104f04d4547c0f6abe90fb5695868686866040516105e594939291906109b7565b60405180910390a2505050505050565b606060006060806000600160008773ffffffffffffffffffffffffffffffffffffffff1673ffffffffffffffffffffffffffffffffffffffff16815260200190815260200160002090506000816001015403610686576040517f08c379a000000000000000000000000000000000000000000000000000000000815260040161067d906111ba565b60405180910390fd5b80600001816001015482600201836003018380546106a390610d55565b80601f01602080910402602001604051908101604052809291908181526020018280546106cf90610d55565b801561071c5780601f106106f15761010080835404028352916020019161071c565b820191906000526020600020905b8154815290600101906020018083116106ff57829003601f168201915b5050505050935081805461072f90610d55565b80601f016020809104026020016040519081016040528092919081815260200182805461075b90610d55565b80156107a85780601f1061077d576101008083540402835291602001916107a8565b820191906000526020600020905b81548152906001019060200180831161078b57829003601f168201915b505050505091508080546107bb90610d55565b80601f01602080910402602001604051908101604052809291908181526020018280546107e790610d55565b80156108345780601f1061080957610100808354040283529160200191610834565b820191906000526020600020905b81548152906001019060200180831161081757829003601f168201915b505050505090509450945094509450509193509193565b60008054906101000a900473ffffffffffffffffffffffffffffffffffffffff1681565b6000604051905090565b600080fd5b600080fd5b600073ffffffffffffffffffffffffffffffffffffffff82169050919050565b60006108ae82610883565b9050919050565b6108be816108a3565b81146108c957600080fd5b50565b6000813590506108db816108b5565b92915050565b6000602082840312156108f7576108f6610879565b5b6000610905848285016108cc565b91505092915050565b600081519050919050565b600082825260208201905092915050565b60005b8381101561094857808201518184015260208101905061092d565b60008484015250505050565b6000601f19601f8301169050919050565b60006109708261090e565b61097a8185610919565b935061098a81856020860161092a565b61099381610954565b840191505092915050565b6000819050919050565b6109b18161099e565b82525050565b600060808201905081810360008301526109d18187610965565b90506109e060208301866109a8565b81810360408301526109f28185610965565b90508181036060830152610a068184610965565b905095945050505050565b600080fd5b600080fd5b7f4e487b7100000000000000000000000000000000000000000000000000000000600052604160045260246000fd5b610a5382610954565b810181811067ffffffffffffffff82111715610a7257610a71610a1b565b5b80604052505050565b6000610a8561086f565b9050610a918282610a4a565b919050565b600067ffffffffffffffff821115610ab157610ab0610a1b565b5b610aba82610954565b9050602081019050919050565b82818337600083830152505050565b6000610ae9610ae484610a96565b610a7b565b905082815260208101848484011115610b0557610b04610a16565b5b610b10848285610ac7565b509392505050565b600082601f830112610b2d57610b2c610a11565b5b8135610b3d848260208601610ad6565b91505092915050565b610b4f8161099e565b8114610b5a57600080fd5b50565b600081359050610b6c81610b46565b92915050565b60008060008060808587031215610b8c57610b8b610879565b5b600085013567ffffffffffffffff811115610baa57610ba961087e565b5b610bb687828801610b18565b9450506020610bc787828801610b5d565b935050604085013567ffffffffffffffff811115610be857610be761087e565b5b610bf487828801610b18565b925050606085013567ffffffffffffffff811115610c1557610c1461087e565b5b610c2187828801610b18565b91505092959194509250565b600080600080600060a08688031215610c4957610c48610879565b5b6000610c57888289016108cc565b955050602086013567ffffffffffffffff811115610c7857610c7761087e565b5b610c8488828901610b18565b9450506040610c9588828901610b5d565b935050606086013567ffffffffffffffff811115610cb657610cb561087e565b5b610cc288828901610b18565b925050608086013567ffffffffffffffff811115610ce357610ce261087e565b5b610cef88828901610b18565b9150509295509295909350565b610d05816108a3565b82525050565b6000602082019050610d206000830184610cfc565b92915050565b7f4e487b7100000000000000000000000000000000000000000000000000000000600052602260045260246000fd5b60006002820490506001821680610d6d57607f821691505b602082108103610d8057610d7f610d26565b5b50919050565b7f5265636f726420616c7265616479206578697374730000000000000000000000600082015250565b6000610dbc601583610919565b9150610dc782610d86565b602082019050919050565b60006020820190508181036000830152610deb81610daf565b9050919050565b60008190508160005260206000209050919050565b60006020601f8301049050919050565b600082821b905092915050565b600060088302610e547fffffffffffffffffffffffffffffffffffffffffffffffffffffffffffffffff82610e17565b610e5e8683610e17565b95508019841693508086168417925050509392505050565b6000819050919050565b6000610e9b610e96610e918461099e565b610e76565b61099e565b9050919050565b6000819050919050565b610eb583610e80565b610ec9610ec182610ea2565b848454610e24565b825550505050565b600090565b610ede610ed1565b610ee9818484610eac565b505050565b5b81811015610f0d57610f02600082610ed6565b600181019050610eef565b5050565b601f821115610f5257610f2381610df2565b610f2c84610e07565b81016020851015610f3b578190505b610f4f610f4785610e07565b830182610eee565b50505b505050565b600082821c905092915050565b6000610f7560001984600802610f57565b1980831691505092915050565b6000610f8e8383610f64565b9150826002028217905092915050565b610fa78261090e565b67ffffffffffffffff811115610fc057610fbf610a1b565b5b610fca8254610d55565b610fd5828285610f11565b600060209050601f8311600181146110085760008415610ff6578287015190505b6110008582610f82565b865550611068565b601f19841661101686610df2565b60005b8281101561103e57848901518255600182019150602085019450602081019050611019565b8683101561105b5784890151611057601f891682610f64565b8355505b6001600288020188555050505b505050505050565b7f4f6e6c792061646d696e2063616e206578656375746520746869730000000000600082015250565b60006110a6601b83610919565b91506110b182611070565b602082019050919050565b600060208201905081810360008301526110d581611099565b9050919050565b7f5265636f726420646f6573206e6f742065786973742c2063726561746520746860008201527f65207265636f7264206669727374000000000000000000000000000000000000602082015250565b6000611138602e83610919565b9150611143826110dc565b604082019050919050565b600060208201905081810360008301526111678161112b565b9050919050565b7f5265636f726420646f6573206e6f742065786973740000000000000000000000600082015250565b60006111a4601583610919565b91506111af8261116e565b602082019050919050565b600060208201905081810360008301526111d381611197565b905091905056fea2646970667358221220044720d27343bffdb40515740d3897667a183e711f3afe7a993bc0574f48e42764736f6c63430008130033",
  "immutableReferences": {},
  "source": "// SPDX-License-Identifier: MIT\npragma solidity >=0.4.22 <0.9.0;\n\ncontract RekamMedis {\n    address public admin;\n    mapping(address => PatientRecord) public patientRecords;\n\n    struct PatientRecord {\n        string name;\n        uint256 dob;\n        string diagnosis;\n        string gender; // Added the gender field\n    }\n\n    event RecordCreated(\n        address indexed patient,\n        string name,\n        uint256 dob,\n        string diagnosis,\n        string gender // Updated the event to include gender\n    );\n    event RecordUpdated(\n        address indexed patient,\n        string name,\n        uint256 dob,\n        string diagnosis,\n        string gender // Updated the event to include gender\n    );\n\n    modifier onlyAdmin() {\n        require(msg.sender == admin, \"Only admin can execute this\");\n        _;\n    }\n\n    constructor() {\n        admin = msg.sender;\n    }\n\n    function createRecord(\n        string memory _name,\n        uint256 _dob,\n        string memory _diagnosis,\n        string memory _gender // Added the gender parameter\n    ) external {\n        require(patientRecords[msg.sender].dob == 0, \"Record already exists\");\n\n        PatientRecord storage newRecord = patientRecords[msg.sender];\n        newRecord.name = _name;\n        newRecord.dob = _dob;\n        newRecord.diagnosis = _diagnosis;\n        newRecord.gender = _gender; // Set the gender\n\n        emit RecordCreated(msg.sender, _name, _dob, _diagnosis, _gender); // Updated the event to include gender\n    }\n\n    function updateRecord(\n        address _patient,\n        string memory _name,\n        uint256 _dob,\n        string memory _diagnosis,\n        string memory _gender // Added the gender parameter\n    ) external onlyAdmin {\n        PatientRecord storage record = patientRecords[_patient];\n        require(\n            record.dob != 0,\n            \"Record does not exist, create the record first\"\n        );\n\n        record.name = _name;\n        record.dob = _dob;\n        record.diagnosis = _diagnosis;\n        record.gender = _gender; // Update the gender\n\n        emit RecordUpdated(_patient, _name, _dob, _diagnosis, _gender); // Updated the event to include gender\n    }\n\n    function viewRecord(\n        address _patient\n    )\n        external\n        view\n        returns (\n            string memory,\n            uint256,\n            string memory,\n            string memory // Updated the return type to include gender\n        )\n    {\n        PatientRecord storage record = patientRecords[_patient];\n        require(record.dob != 0, \"Record does not exist\");\n\n        return (record.name, record.dob, record.diagnosis, record.gender); // Include the gender\n    }\n}\n",
  "sourcePath": "D:\\solidityproject\\newrekam\\contracts\\RekamMedis.sol",
  "compiler": {
    "name": "solc",
    "version": "0.8.19+commit.7dd6d404.Emscripten.clang"
  },
  "schemaVersion": "3.4.16",
  "updatedAt": "2024-01-15T04:07:35.798Z",
  "networkType": "ethereum",
  "devdoc": {
    "kind": "dev",
    "methods": {},
    "version": 1
  },
  "userdoc": {
    "kind": "user",
    "methods": {},
    "version": 1
  }
}